:020000040800F2
:10000000180400209D010008C502000883020008B2
:10001000C1020008E5010008B90400080000000062
:1000200000000000000000000000000015030008B0
:10003000E901000800000000F1020008390400088E
:10004000B7010008B7010008B7010008B7010008B0
:10005000B7010008B7010008B7010008B7010008A0
:10006000B7010008B7010008B7010008B701000890
:10007000B7010008B7010008B7010008B701000880
:10008000B7010008B7010008B7010008B701000870
:10009000B7010008B7010008B7010008B701000860
:1000A000B7010008B7010008B7010008B701000850
:1000B000B7010008B7010008B7010008B701000840
:1000C000B7010008B7010008B7010008B701000830
:1000D000B7010008B7010008B7010008B701000820
:1000E000B7010008B7010008B7010008B701000810
:1000F000B7010008B7010008B7010008B701000800
:10010000B7010008B7010008B7010008B7010008EF
:10011000B7010008B7010008B7010008B7010008DF
:10012000B7010008B7010008B7010008B7010008CF
:10013000B7010008B7010008B7010008B7010008BF
:10014000B7010008B7010008B7010008B7010008AF
:10015000B7010008B7010008B7010008B70100089F
:10016000B7010008B7010008B7010008B70100088F
:10017000B7010008B7010008B7010008B70100087F
:10018000B7010008B7010008DFF80CD000F018F83C
:1001900000480047DD040008180400200648804796
:1001A00006480047FEE7FEE7FEE7FEE7FEE7FEE75C
:1001B000FEE7FEE7FEE7FEE75104000889010008BC
:1001C000064C074D06E0E06840F0010394E80700A4
:1001D00098471034AC42F6D3FFF7DAFFDC0500088D
:1001E000FC05000800BFFEE77047F0B50A46002195
:1001F0000023002400BF3DE0012505FA01F3156846
:1002000005EA03049C4234D105684F000326BE4032
:10021000B543056015794E00B54006683543056065
:100220001579012D02D01579022D16D185684F0060
:100230000326BE40B543856055794E00B5408668BB
:1002400035438560456801268E40B5434560456865
:1002500096798E40B6B235434560C5684F00032697
:10026000BE40B543C560D5794E00B540C66835433C
:10027000C560491C1029BFD3F0BD4183704701837D
:10028000704700BFFEE7000070B504460A480068EA
:100290004FF47A71B0FBF1F5284600F0B3F8002175
:1002A000481E00F011F80548046000BF03480068CC
:1002B0000028FBD170BD00000400002000000020D9
:1002C00000BFFEE77047000010B5002807DA0A07F4
:1002D000140E054A00F00F031B1FD45403E00A0755
:1002E000130E024A135410BD18ED00E000E400E0C4
:1002F0007047000029B1064A12680243044B1A6095
:1003000004E0034A12688243014B1A607047000000
:1003100030380240704700000CB50020019000907A
:100320003448006840F480303249086000BF3148EA
:10033000006800F4003000900198401C0190009883
:1003400018B90198B0F5A04FF1D12A48006800F41F
:10035000003010B10120009001E0002000900098D2
:10036000012846D123484030006840F080502149A0
:10037000403108602048006840F440401E49086051
:100380001C48083000681B490831086008460068AE
:1003900040F4004008600846006840F4A05008603F
:1003A0001648091F0860081F006840F08070091F88
:1003B000086000BF0F48006800F000700028F9D006
:1003C00040F205700E4908600A480830006820F0C5
:1003D00003000849083108600846006840F0020040
:1003E000086000BF03480830006800F00C000828CF
:1003F000F8D10CBD0038024000700040085440079E
:10040000003C024010B50446601EB0F1807F01D36D
:10041000012010BD601E4FF0E02148610F214FF018
:10042000FF30FFF751FF00204FF0E02188610720E7
:1004300008610020EDE7000004480068002804DDA2
:1004400002480068401E0149086070470000002013
:1004500010B51548006840F470001349086013484F
:10046000006840F001001149086000200F49083180
:1004700008600E4800680E4908400C4908600D48A5
:10048000091D0860081F006820F48020091F08600B
:10049000002006490C310860FFF73EFF4FF0006076
:1004A00001498039086010BD88ED00E00038024045
:1004B000FFFFF6FE1030002400BFFEE702E008C890
:1004C000121F08C1002AFAD170477047002001E0CE
:1004D00001C1121F002AFBD1704700001CB5012189
:1004E0002020FFF707FF01211020FFF703FF4FF443
:1004F0000070009001208DF8040002208DF80500A6
:1005000000208DF8060069463248FFF76EFE4FF472
:100510008060009069462F48FFF767FE4FF4005057
:10052000009069462C48FFF760FE4FF48040009031
:1005300069462948FFF759FE4FF400712548FFF737
:100540009EFE4FF480612348FFF799FE4FF400515F
:100550002148FFF794FE4FF480411F48FFF78FFEBC
:1005600037E04FF480411C48FFF787FE4FF47A7064
:10057000FFF78AFE4FF480411748FFF780FE4FF4E3
:1005800000511548FFF779FE4FF47A70FFF77CFEB3
:100590004FF400511048FFF772FE4FF480610D4890
:1005A000FFF76BFE4FF47A70FFF76EFE4FF4806139
:1005B0000848FFF764FE4FF400710648FFF75DFE40
:1005C0004FF47A70FFF760FE4FF400710148FFF7B7
:1005D00056FEC6E70014024000100240FC05000869
:1005E0000000002018000000BC04000814060008E9
:1005F0001800002000040000CC04000800000000E7
:10060000007A030A00000000000000000102030459
:0406100006070809C8
:040000050800018965
:00000001FF
