:020000040800F2
:10000000180400209D010008CD0300088B030008A0
:10001000C9030008E5010008AD0600080000000063
:10002000000000000000000000000000C9040008FB
:10003000E901000800000000850400082D06000802
:10004000B7010008B7010008B7010008B7010008B0
:10005000B7010008B7010008ED010008B70100086A
:10006000B7010008B7010008B7010008B701000890
:10007000B7010008B7010008B7010008B701000880
:10008000B7010008B7010008B7010008B701000870
:10009000B7010008B7010008B7010008B701000860
:1000A000B7010008B7010008B7010008B701000850
:1000B000B7010008B7010008B7010008B701000840
:1000C000B7010008B7010008B7010008B701000830
:1000D000B7010008B7010008B7010008B701000820
:1000E000B7010008B7010008B7010008B701000810
:1000F000B7010008B7010008B7010008B701000800
:10010000B7010008B7010008B7010008B7010008EF
:10011000B7010008B7010008B7010008B7010008DF
:10012000B7010008B7010008B7010008B7010008CF
:10013000B7010008B7010008B7010008B7010008BF
:10014000B7010008B7010008B7010008B7010008AF
:10015000B7010008B7010008B7010008B70100089F
:10016000B7010008B7010008B7010008B70100088F
:10017000B7010008B7010008B7010008B70100087F
:10018000B7010008B7010008DFF80CD000F018F83C
:100190000048004759070008180400200648804717
:1001A00006480047FEE7FEE7FEE7FEE7FEE7FEE75C
:1001B000FEE7FEE7FEE7FEE74506000889010008C6
:1001C000064C074D06E0E06840F0010394E80700A4
:1001D00098471034AC42F6D3FFF7DAFFE407000883
:1001E0000408000800BFFEE77047000010B50120BA
:1001F00000F01EF888B1012000F014F84FF40071EF
:10020000064800F0BEF800BF0121054800F0AEF836
:100210000028F9D00A2000F0BBF810BD00140240FD
:10022000000002400149086070470000143C014092
:1002300001460020034A12680A400AB1012000E08A
:1002400000207047143C0140002123498279002A94
:100250003AD00A46126803689A430B461A600A1D90
:10026000126803689A430B1D1A60027911440A68E8
:1002700003681A430A60184A0832126803689A43EE
:10028000154B08331A601A1D126803689A43124B03
:100290000C331A604279102A0ED11A1F12680368B3
:1002A0001A430D4B08331A601A1D126803681A436B
:1002B000094B0C331A600DE00749427911440A6872
:1002C00003681A430A6005E0027911440A6803686A
:1002D0009A430A6070470000003C0140F0B50A46AE
:1002E00000210023002400BF3DE0012505FA01F3B1
:1002F000156805EA03049C4234D105684F000326C3
:10030000BE40B543056015794E00B54006683543DB
:1003100005601579012D02D01579022D16D1856859
:100320004F000326BE40B543856055794E00B54069
:10033000866835438560456801268E40B543456033
:10034000456896798E40B6B235434560C5684F0022
:100350000326BE40B543C560D5794E00B540C6689A
:100360003543C560491C1029BFD3F0BD02460020AB
:1003700013690B400BB1012000E00020704741835E
:10038000704742694A404261704700BFFEE7000083
:1003900070B504460A4800684FF47A71B0FBF1F575
:1003A000284600F029F90021481E00F057F80548BA
:1003B000046000BF034800680028FBD170BD000046
:1003C000040000200000002000BFFEE7704700008E
:1003D00070B5002100230F22C4781CB3174C246889
:1003E00004F4E064C4F5E064C4F30721C1F104043B
:1003F000E3B20A4144789C40E1B28478144021433E
:100400000C07210E0E4C05786155047804F01F0589
:100410000124AC4005786D11AD0005F1E025C5F86B
:10042000004109E0047804F01F050124AC40054DAB
:100430000678761145F8264070BD00000CED00E00E
:1004400000E400E080E100E002490143024A11605B
:10045000704700000000FA050CED00E010B5002820
:1004600007DA0A07140E054A00F00F031B1FD454C5
:1004700003E00A07130E024A135410BD18ED00E002
:1004800000E400E07047000029B1064A1268024308
:10049000044B1A6004E0034A12688243014B1A605D
:1004A000704700003038024029B1064A1268024302
:1004B000044B1A6004E0034A12688243014B1A603D
:1004C00070470000443802407047000030B50022F9
:1004D0008B071C0F0F2303FA04F20B4B8C1053F8FD
:1004E00024309343084C8D1044F8253023468C105B
:1004F00053F824308C07240F00FA04F42343024CF1
:100500008D1044F8253030BD083801400CB500206E
:10051000019000903448006840F48030324908600F
:1005200000BF3148006800F4003000900198401C82
:100530000190009818B90198B0F5A04FF1D12A4860
:10054000006800F4003010B10120009001E00020AC
:1005500000900098012846D123484030006840F0C0
:1005600080502149403108602048006840F44040F4
:100570001E4908601C48083000681B4908310860A3
:100580000846006840F4004008600846006840F4EF
:10059000A05008601648091F0860081F006840F056
:1005A0008070091F086000BF0F48006800F00070ED
:1005B0000028F9D040F205700E4908600A4808305A
:1005C000006820F003000849083108600846006808
:1005D00040F00200086000BF03480830006800F0E7
:1005E0000C000828F8D10CBD003802400070004013
:1005F00008544007003C024010B50446601EB0F1AC
:10060000807F01D3012010BD601E4FF0E0214861C2
:100610000F214FF0FF30FFF721FF00204FF0E021C6
:100620008861072008610020EDE7000004480068A9
:10063000002804DD02480068401E01490860704738
:100640000000002010B51548006840F47000134900
:1006500008601348006840F001001149086000205C
:100660000F49083108600E4800680E4908400C49DF
:1006700008600D48091D0860081F006820F48020EC
:10068000091F0860002006490C310860FFF73EFF93
:100690004FF0006001498039086010BD88ED00E02E
:1006A00000380240FFFFF6FE1030002400BFFEE7D6
:1006B00002E008C8121F08C1002AFAD1704770472B
:1006C000002001E001C1121F002AFBD17047000089
:1006D0001CB501213020FFF7D7FE01208DF8040062
:1006E00002208DF8050000208DF806004FF4007000
:1006F000009069461648FFF7F1FD4FF480600090C6
:1007000069461348FFF7EAFD4FF400500090694630
:100710001048FFF7E3FD4FF48040009069460D4814
:10072000FFF7DCFD4FF400710948FFF728FE4FF496
:1007300080610748FFF723FE4FF400510548FFF79B
:100740001EFE4FF480410348FFF719FE1CBD000058
:1007500000140240001002404FF4A060FFF774FE46
:10076000FFF7B6FF00F002F800BFFEE700B585B066
:1007700001210846FFF788FE0120039000208DF834
:10078000100001208DF8130003A91548FFF7A6FDFE
:1007900001218803FFF788FE00210846FFF796FE37
:1007A0000120019000208DF808000C208DF8090030
:1007B00001208DF80A0001A8FFF746FD06208DF8FC
:1007C000000001208DF8010000208DF802000120BA
:1007D0008DF803006846FFF7FBFD05B000BD000083
:1007E000000002400408000800000020180000007B
:1007F000B00600081C0800081800002000040000D3
:10080000C006000800000000007A030A0000000093
:0C081000000000000102030406070809B4
:040000050800018965
:00000001FF
