:020000040800F2
:10000000180400209D01000825040008E5030008ED
:1000100021040008E501000819060008000000009E
:10002000000000000000000000000000750400084F
:100030003903000800000000510400089905000879
:10004000B7010008B7010008B7010008B7010008B0
:10005000B7010008B7010008B7010008B7010008A0
:10006000B7010008B7010008B7010008B701000890
:10007000B7010008B7010008B7010008B701000880
:10008000B7010008B7010008B7010008B701000870
:10009000B7010008B7010008B7010008B701000860
:1000A000B7010008B7010008B7010008B701000850
:1000B000B7010008B7010008B7010008B701000840
:1000C000B7010008B7010008B7010008B701000830
:1000D000B7010008B7010008B7010008B701000820
:1000E000B7010008B7010008B7010008B701000810
:1000F000B7010008B7010008B7010008B701000800
:10010000B7010008B7010008B7010008B7010008EF
:10011000B7010008B7010008B7010008B7010008DF
:10012000B7010008B7010008B7010008B7010008CF
:10013000B7010008B7010008B7010008B7010008BF
:10014000B7010008B7010008B7010008B7010008AF
:10015000B7010008B7010008B7010008B70100089F
:10016000B7010008B7010008B7010008B70100088F
:10017000B7010008B7010008B7010008B70100087F
:10018000B7010008B7010008DFF80CD000F018F83C
:10019000004800472507000818040020064880474B
:1001A00006480047FEE7FEE7FEE7FEE7FEE7FEE75C
:1001B000FEE7FEE7FEE7FEE7B1050008890100085B
:1001C000064C074D06E0E06840F0010394E80700A4
:1001D00098471034AC42F6D3FFF7DAFF5408000812
:1001E0007408000800BFFEE710B58021074800F042
:1001F000F5F81021064800F0F3F84021034800F01C
:10020000EDF88021034800F0EBF810BD000C02402F
:10021000000002400004024010B58021074800F0B1
:10022000DFF81021064800F0D9F84021034800F01B
:10023000D7F88021034800F0D1F810BD000C02402F
:10024000000002400004024010B58021074800F081
:10025000C5F81021064800F0C3F84021034800F01B
:10026000BFF88021034800F0B9F810BD000C02402F
:10027000000002400004024010B58021074800F051
:10028000AFF81021064800F0A9F84021034800F01B
:10029000A5F88021034800F0A3F810BD000C02402F
:1002A000000002400004024010B58021074800F021
:1002B00095F81021064800F091F84021034800F01D
:1002C0008DF88021034800F089F810BD000C024031
:1002D000000002400004024010B58021074800F0F1
:1002E0007DF81021064800F07BF84021034800F01B
:1002F00077F88021034800F071F810BD000C02402F
:10030000000002400004024010B58021074800F0C0
:1003100067F81021064800F061F84021034800F01A
:100320005DF88021034800F05BF810BD000C02402E
:1003300000000240000402407047F0B50A46002168
:100340000023002400BF3DE0012505FA01F31568F4
:1003500005EA03049C4234D105684F000326BE40E1
:10036000B543056015794E00B54006683543056014
:100370001579012D02D01579022D16D185684F000F
:100380000326BE40B543856055794E00B54086686A
:1003900035438560456801268E40B5434560456814
:1003A00096798E40B6B235434560C5684F00032646
:1003B000BE40B543C560D5794E00B540C6683543EB
:1003C000C560491C1029BFD3F0BD02460020136947
:1003D0000B400BB1012000E00020704741837047C3
:1003E0000183704700BFFEE770B504460A48006805
:1003F0004FF47A71B0FBF1F5284600F0B3F8002114
:10040000481E00F011F80548046000BF034800686A
:100410000028FBD170BD0000040000200000002077
:1004200000BFFEE77047000010B5002807DA0A0792
:10043000140E054A00F00F031B1FD45403E00A07F3
:10044000130E024A135410BD18ED00E000E400E062
:100450007047000029B1064A12680243044B1A6033
:1004600004E0034A12688243014B1A60704700009F
:1004700030380240704700000CB500200190009019
:100480003448006840F480303249086000BF314889
:10049000006800F4003000900198401C0190009822
:1004A00018B90198B0F5A04FF1D12A48006800F4BE
:1004B000003010B10120009001E000200090009871
:1004C000012846D123484030006840F0805021493F
:1004D000403108602048006840F440401E490860F0
:1004E0001C48083000681B4908310860084600684D
:1004F00040F4004008600846006840F4A0500860DE
:100500001648091F0860081F006840F08070091F26
:10051000086000BF0F48006800F000700028F9D0A4
:1005200040F205700E4908600A480830006820F063
:1005300003000849083108600846006840F00200DE
:10054000086000BF03480830006800F00C0008286D
:10055000F8D10CBD0038024000700040085440073C
:10056000003C024010B50446601EB0F1807F01D30C
:10057000012010BD601E4FF0E02148610F214FF0B7
:10058000FF30FFF751FF00204FF0E0218861072086
:1005900008610020EDE7000004480068002804DD41
:1005A00002480068401E01490860704700000020B2
:1005B00010B51548006840F47000134908601348EE
:1005C000006840F001001149086000200F4908311F
:1005D00008600E4800680E4908400C4908600D4844
:1005E000091D0860081F006820F48020091F0860AA
:1005F000002006490C310860FFF73EFF4FF0006015
:1006000001498039086010BD88ED00E000380240E3
:10061000FFFFF6FE1030002400BFFEE702E008C82E
:10062000121F08C1002AFAD170477047002001E06C
:1006300001C1121F002AFBD1704700001CB5012127
:100640000B20FFF707FF01208DF8040000208DF834
:10065000060002208DF8050000208DF8070080209C
:10066000009069461648FFF768FE10200090694622
:100670001448FFF762FE4020009069461048FFF7DB
:100680005CFE8020009069460F48FFF756FE8021EF
:100690000B48FFF7A5FE10210A48FFF7A1FE4021F5
:1006A0000748FFF79DFE80210748FFF799FE32209B
:1006B000FFF79AFEFFF7F8FD1420FFF795FE1CBD2B
:1006C000000C024000000240000402401CB5012161
:1006D0001120FFF7BFFE00208DF8040001208DF8E7
:1006E000070002208DF805000120009069460B48A4
:1006F000FFF723FE0420009069460948FFF71DFE1E
:100700000820009069460648FFF717FE1020009069
:1007100069460348FFF711FE1CBD000000000240BF
:1007200000100240FFF78AFF00F076F8FFF7CEFFD7
:100730006420FFF759FE66E001213348FFF745FECC
:1007400058B9FFF769FD00BF01212F48FFF73DFEB3
:100750000028F9D0FFF7A8FD55E004212B48FFF74A
:1007600034FE58B9FFF740FD00BF04212748FFF7CA
:100770002CFE0028F9D0FFF797FD44E0082123481C
:10078000FFF723FE58B9FFF7A7FD00BF08211F4858
:10079000FFF71BFE0028F9D0FFF786FD33E010219C
:1007A0001A48FFF712FE58B9FFF7AEFD00BF10213F
:1007B0001648FFF70AFE0028F9D0FFF775FD22E082
:1007C0004FF400411248FFF700FE04464021114853
:1007D000FFF7FBFD05461CB915B9FFF71DFD11E03C
:1007E000012C04D1012D02D1FFF75EFD0AE0012C9E
:1007F00003D115B9FFF728FD04E01CB9012D01D183
:10080000FFF73AFD00BF97E70000024000100240EA
:1008100000180240000402401CB501214220FFF7ED
:1008200019FE00208DF804008DF8070002208DF8D5
:1008300005008003009069460448FFF77EFD4020D4
:10084000009069460248FFF778FD1CBD0018024081
:100850000004024074080008000000201800000096
:100860001C0600088C080008180000200004000086
:100870002C06000800000000007A030A00000000B7
:0C08800000000000010203040607080944
:040000050800018965
:00000001FF
