:020000040800F2
:10000000300400209D0100089504000853040008F6
:10001000910400080D020008870A00080000000093
:100020000000000000000000000000007906000849
:1000300061030008000000004D0500089D0700084E
:10004000B7010008B7010008B7010008B7010008B0
:10005000B7010008B7010008B7010008B7010008A0
:10006000B7010008B7010008B7010008B701000890
:10007000B7010008B7010008B7010008B701000880
:10008000B7010008B7010008B7010008B701000870
:10009000B7010008B7010008B7010008B701000860
:1000A000B7010008B7010008B7010008B701000850
:1000B000B7010008B7010008B7010008B701000840
:1000C000B7010008B7010008B7010008B701000830
:1000D000B7010008B70100081D080008B7010008B3
:1000E000B7010008B7010008B7010008B701000810
:1000F000B7010008B7010008B7010008B701000800
:10010000B7010008B7010008B7010008B7010008EF
:10011000B7010008B7010008B7010008B7010008DF
:10012000B7010008B7010008B7010008B7010008CF
:10013000B7010008B7010008B7010008B7010008BF
:10014000B7010008B7010008B7010008B7010008AF
:10015000B7010008B7010008B7010008B70100089F
:10016000B7010008B7010008B7010008B70100088F
:10017000B7010008B7010008B7010008B70100087F
:10018000B7010008B7010008DFF80CD000F018F83C
:1001900000480047410B0008300400200648804713
:1001A00006480047FEE7FEE7FEE7FEE7FEE7FEE75C
:1001B000FEE7FEE7FEE7FEE7B50700088901000855
:1001C000064C074D06E0E06840F0010394E80700A4
:1001D00098471034AC42F6D3FFF7DAFFBC0C0008A6
:1001E000DC0C000810B54FF48071024800F02DF9C6
:1001F00010BD00000014024010B54FF48071024899
:1002000000F025F910BD00000014024000BFFEE719
:1002100010B58021074800F018F91021064800F0B9
:1002200016F94021034800F010F98021034800F03E
:100230000EF910BD000C0240000002400004024014
:1002400010B58021074800F002F91021064800F09F
:10025000FCF84021034800F0FAF88021034800F040
:10026000F4F810BD000C02400000024000040240FF
:1002700010B58021074800F0E8F81021064800F08A
:10028000E4F84021034800F0E2F88021034800F040
:10029000DCF810BD000C02400000024000040240E7
:1002A00010B58021074800F0D2F81021064800F070
:1002B000CCF84021034800F0C8F88021034800F042
:1002C000C4F810BD000C02400000024000040240CF
:1002D00010B58021074800F0B8F81021064800F05A
:1002E000B4F84021034800F0B0F88021034800F042
:1002F000ACF810BD000C02400000024000040240B7
:1003000010B58021074800F0A0F81021064800F041
:100310009EF84021034800F09AF88021034800F03D
:1003200094F810BD000C024000000240000402409E
:1003300010B58021074800F08AF81021064800F027
:1003400084F84021034800F080F88021034800F041
:100350007EF810BD000C0240000002400004024084
:100360007047F0B50A4600210023002400BF3DE09D
:10037000012505FA01F3156805EA03049C4234D10E
:1003800005684F000326BE40B543056015794E0051
:10039000B5400668354305601579012D02D0157901
:1003A000022D16D185684F000326BE40B5438560F7
:1003B00055794E00B540866835438560456801260D
:1003C0008E40B5434560456896798E40B6B2354358
:1003D0004560C5684F000326BE40B543C560D5796A
:1003E0004E00B540C6683543C560491C1029BFD3CF
:1003F000F0BDF0B5002300244D07ED0E02FA05F321
:10040000CE1000F1200555F826504E07F70E0F26A6
:10041000BE40B543CF1000F1200646F82750CE105D
:1004200000F1200555F8265045EA0304CE1000F1EE
:10043000200545F82640F0BD0246002013690B4018
:100440000BB1012000E00020704741837047018319
:10045000704700BFFEE7000070B504460A48006818
:100460004FF47A71B0FBF1F5284600F07DF90021D8
:10047000481E00F057F80548046000BF03480068B4
:100480000028FBD170BD00001800002014000020DF
:1004900000BFFEE77047000070B5002100230F2267
:1004A000C4781CB3174C246804F4E064C4F5E06419
:1004B000C4F30721C1F10404E3B20A4144789C402B
:1004C000E1B28478144021430C07210E0E4C0578CC
:1004D0006155047804F01F050124AC4005786D11C6
:1004E000AD0005F1E025C5F8004109E0047804F00D
:1004F0001F050124AC40054D0678761145F82640CD
:1005000070BD00000CED00E000E400E080E100E0E0
:1005100002490143024A1160704700000000FA05D9
:100520000CED00E010B5002807DA0A07140E054AA2
:1005300000F00F031B1FD45403E00A07130E024AF6
:10054000135410BD18ED00E000E400E07047000017
:1005500029B1064A12680243044B1A6004E0034AB8
:1005600012688243014B1A60704700003038024025
:1005700029B1064A12680243044B1A6004E0034A98
:1005800012688243014B1A607047000040380240F5
:10059000F0B5002100220024022500260223324F5C
:1005A0003F6807F00C0121B1042905D0082937D193
:1005B00005E02E4F076036E02D4F076033E02A4FED
:1005C0003F1F3F68C7F38056274F3F1F3F6807F024
:1005D0003F036EB1264FB7FBF3F7DFF88CC0ACF1E9
:1005E000040CDCF800C0CCF3881C07FB0CF40CE016
:1005F0001E4FB7FBF3F7DFF870C0ACF1040CDCF86A
:1006000000C0CCF3881C07FB0CF4174F3F1F3F685A
:10061000C7F301477F1C7D00B4FBF5F7076002E0DC
:10062000124F076000BF00BF0F4F3F6807F0F00197
:100630000909104F7A5C0768D74047600A4F3F6846
:1006400007F4E051890A0B4F7A5C4768D74087600E
:10065000054F3F6807F46041490B064F7A5C4768D5
:10066000D740C760F0BD0000083802400024F40005
:1006700000127A0000000020704700000CB5002036
:10068000019000903448006840F48030324908609E
:1006900000BF3148006800F4003000900198401C11
:1006A0000190009818B90198B0F5A04FF1D12A48EF
:1006B000006800F4003010B10120009001E000203B
:1006C00000900098012846D123484030006840F04F
:1006D00080502149403108602048006840F4404083
:1006E0001E4908601C48083000681B490831086032
:1006F0000846006840F4004008600846006840F47E
:10070000A05008601648091F0860081F006840F0E4
:100710008070091F086000BF0F48006800F000707B
:100720000028F9D040F205700E4908600A480830E8
:10073000006820F003000849083108600846006896
:1007400040F00200086000BF03480830006800F075
:100750000C000828F8D10CBD0038024000700040A1
:1007600008544007003C024010B50446601EB0F13A
:10077000807F01D3012010BD601E4FF0E021486151
:100780000F214FF0FF30FFF7CDFE00204FF0E021AA
:100790008861072008610020EDE700000448006838
:1007A000002804DD02480068401E014908607047C7
:1007B0001400002010B51548006840F4700013497B
:1007C00008601348006840F00100114908600020EB
:1007D0000F49083108600E4800680E4908400C496E
:1007E00008600D48091D0860081F006820F480207B
:1007F000091F0860002006490C310860FFF73EFF22
:100800004FF0006001498039086010BD88ED00E0BC
:1008100000380240FFFFF6FE1030002410B540F211
:1008200025512A4800F071F800284DD0274800F0E3
:1008300025F9C4B226480078A0BB412C02D1FFF7AD
:10084000FFFC3BE0422C02D1FFF7E2FC36E0432CF8
:1008500002D1FFF755FD31E0442C02D1FFF768FDCE
:100860002CE0452C02D1FFF733FD27E0462C02D1C6
:10087000FFF7FEFC22E0472C02D1FFF711FD1DE03F
:10088000482C02D1FFF7B8FC18E0492C02D1FFF741
:10089000A9FC13E0532C11D101200D490870FFF77A
:1008A00017FD0BE0FFE70A480078012806D1522C1B
:1008B00004D1002006490870FFF70AFD40F22551D7
:1008C000024800F007F800BF10BD000000440040DF
:1008D0001000002010B50022002340F66A14A14247
:1008E00000D100BF0A1201249440A3B2DC4304806B
:1008F00010BD21B1828942F40052828104E08289D4
:100900004DF6FF731A408281704770B5024600248D
:1009100000230025002040F66A16B14200D100BF36
:10092000C1F3421501F01F03012606FA03F3012D5E
:1009300002D19689334006E0022D02D1168A334057
:1009400001E0968A33400C12012606FA04F4168858
:10095000344013B10CB1012000E0002070BDF0B5AF
:100960000346002400260025002040F66A17B942FD
:1009700000D100BF1846C1F3421401F01F06012741
:1009800007FA06F5012C01D10C3004E0022C01D14C
:10099000103000E014301AB107682F43076002E0FE
:1009A0000768AF430760F0BD2DE9FF4705460E46D7
:1009B0000024A14600BFA046B08900B100BF2C8A28
:1009C00024F44054F08804432C82AC8941F20C603A
:1009D0008443B08831890843718908430443AC815A
:1009E000AC8A24F44074B0890443AC826846FFF7B3
:1009F000CFFD2048854202D01F48854202D1DDF854
:100A00000C9001E0DDF80890A88900F4004040B1A6
:100A100009EBC90000EB091031684900B0FBF1F7A0
:100A200007E009EBC90000EB091031688900B0FB51
:100A3000F1F76420B7FBF0F004012009642101FB09
:100A40001078A88900F4004040B1322000EBC800C3
:100A5000B0FBF1F000F00700044308E0322000EBA7
:100A600008106421B0FBF1F000F00F0004432C816A
:100A7000BDE8FF870010014000140140014688884E
:100A8000C0F30800704700BFFEE702E008C8121F6D
:100A900008C1002AFAD170477047002001E001C167
:100AA000121F002AFBD170471CB501212B20FFF734
:100AB0004FFD01208DF8040000208DF80600022073
:100AC0008DF8050000208DF8070080200090694611
:100AD0001748FFF746FC1020009069461548FFF7BD
:100AE00040FC4020009069461148FFF73AFC802006
:100AF000009069461048FFF734FC4FF48070009076
:100B000001208DF8040000208DF8060002208DF8E9
:100B1000050000208DF8070069460848FFF721FC12
:100B2000FFF7D6FBFFF75EFB0A20FFF795FC1CBD25
:100B3000000C024000000240000402400014024089
:100B40004FF4A060FFF7E4FCFFF7AEFF00F034F8CD
:100B500000F050F828E015480078012824D1C1039E
:100B60001348FFF769FC044640211248FFF764FC74
:100B700005461CB915B9FFF763FB11E0012C04D140
:100B8000012D02D1FFF7A4FB0AE0012C03D115B916
:100B9000FFF76EFB04E01CB9012D01D1FFF780FBCC
:100BA0000A20FFF759FC00BFD5E700001000002025
:100BB00000180240000402401CB501214220FFF74A
:100BC000C7FC00208DF804008DF8070002208DF886
:100BD00005008003009069460448FFF7C2FB4020EF
:100BE000009069460248FFF7BCFB1CBD001802409C
:100BF0000004024000B587B001210846FFF7A8FCB9
:100C00000420059002208DF818008DF819000020AE
:100C10008DF81A0001208DF81B0005A92548FFF763
:100C2000A0FB0820059002208DF8180000208DF808
:100C30001B0005A91F48FFF794FB072202211D484E
:100C4000FFF7D7FB072203211A48FFF7D2FB012148
:100C50004804FFF78DFC4FF4165001900020ADF8CA
:100C60000800ADF80A00ADF80C000C20ADF80E003D
:100C70000020ADF8100001A90F48FFF795FE2620CF
:100C80008DF8000002208DF801008DF8020001208F
:100C90008DF803006846FFF7FFFB012240F2255163
:100CA0000548FFF75CFE01210348FFF722FE07B06D
:100CB00000BD00000000024000440040DC0C0008C1
:100CC000000000202C0000008A0A0008080D00081F
:100CD0002C000020040400009A0A00080000000014
:100CE00001020304010203040607080900000000D2
:100CF00000000000007A030A00000000000000006D
:080D00000102030406070809C3
:040000050800018965
:00000001FF
