:020000040800F2
:10000000180400209D010008C90400082904000804
:10001000C5040008E5010008BD0600080000000056
:1000200000000000000000000000000019050008AA
:100030007D03000800000000F50400083D060008EC
:10004000B7010008B7010008B7010008B7010008B0
:10005000B7010008B7010008B7010008B7010008A0
:10006000B7010008B7010008B7010008B701000890
:10007000B7010008B7010008B7010008B701000880
:10008000B7010008B7010008B7010008B701000870
:10009000B7010008B7010008B7010008B701000860
:1000A000B7010008B7010008B7010008B701000850
:1000B000B7010008B7010008B7010008B701000840
:1000C000B7010008B7010008B7010008B701000830
:1000D000B7010008B7010008B7010008B701000820
:1000E000B7010008B7010008B7010008B701000810
:1000F000B7010008B7010008B7010008B701000800
:10010000B7010008B7010008B7010008B7010008EF
:10011000B7010008B7010008B7010008B7010008DF
:10012000B7010008B7010008B7010008B7010008CF
:10013000B7010008B7010008B7010008B7010008BF
:10014000B7010008B7010008B7010008B7010008AF
:10015000B7010008B7010008B7010008B70100089F
:10016000B7010008B7010008B7010008B70100088F
:10017000B7010008B7010008B7010008B70100087F
:10018000B7010008B7010008DFF80CD000F018F83C
:1001900000480047E1060008180400200648804790
:1001A00006480047FEE7FEE7FEE7FEE7FEE7FEE75C
:1001B000FEE7FEE7FEE7FEE75506000889010008B6
:1001C000064C074D06E0E06840F0010394E80700A4
:1001D00098471034AC42F6D3FFF7DAFFC80700089F
:1001E000E807000800BFFEE710B54FF400710948AA
:1001F00000F016F94FF48061074800F013F94FF44E
:100200000071064800F00CF94021044800F00AF99A
:1002100010BD00000008024000000240000402403F
:1002200010B54FF40071094800F0FCF84FF48061FC
:10023000074800F0F5F84FF40071064800F0F2F8B6
:100240004021044800F0ECF810BD00000008024016
:1002500000000240000402401CB50121084600F0E5
:100260004BF90121022000F047F90121042000F0A0
:1002700043F901208DF8040000208DF806000220CB
:100280008DF8050000208DF807004FF400700090F5
:1002900069460D4800F073F84FF48060009069469D
:1002A0000A4800F06CF84FF4007000906946084866
:1002B00000F065F8402000906946054800F05FF8BE
:1002C00000F008F81CBD00000008024000000240D9
:1002D0000004024010B54FF40071094800F0A0F886
:1002E0004FF48061074800F09BF84FF40071064816
:1002F00000F096F84021044800F092F810BD00008C
:1003000000080240000002400004024010B54FF413
:100310000071094800F084F84FF48061074800F04C
:1003200081F84FF40071064800F07CF84021044841
:1003300000F076F810BD0000000802400000024006
:100340000004024010B54FF40071094800F06AF84B
:100350004FF48061074800F063F84FF400710648DD
:1003600000F05EF84021044800F05CF810BD000089
:100370000008024000000240000402407047F0B54F
:100380000A4600210023002400BF3DE0012505FAB4
:1003900001F3156805EA03049C4234D105684F0057
:1003A0000326BE40B543056015794E00B54006688A
:1003B000354305601579012D02D01579022D16D12E
:1003C00085684F000326BE40B543856055794E00D1
:1003D000B540866835438560456801268E40B54343
:1003E0004560456896798E40B6B235434560C5682C
:1003F0004F000326BE40B543C560D5794E00B540D9
:10040000C6683543C560491C1029BFD3F0BD0246FC
:10041000002013690B400BB1012000E00020704761
:10042000418370470183704700BFFEE71CB501217F
:10043000084600F061F80121102000F05DF800206E
:100440008DF8040001208DF8070002208DF80500CA
:100450000120009069460B48FFF791FF04200090AF
:1004600069460948FFF78BFF082000906946064857
:10047000FFF785FF1020009069460348FFF77FFFD4
:100480001CBD0000000002400010024070B5044690
:100490000A4800684FF47A71B0FBF1F5284600F085
:1004A000B3F80021481E00F011F80548046000BFB1
:1004B000034800680028FBD170BD00000400002044
:1004C0000000002000BFFEE77047000010B50028C4
:1004D00007DA0A07140E054A00F00F031B1FD45455
:1004E00003E00A07130E024A135410BD18ED00E092
:1004F00000E400E07047000029B1064A1268024398
:10050000044B1A6004E0034A12688243014B1A60EC
:100510007047000030380240704700000CB50020E2
:10052000019000903448006840F4803032490860FF
:1005300000BF3148006800F4003000900198401C72
:100540000190009818B90198B0F5A04FF1D12A4850
:10055000006800F4003010B10120009001E000209C
:1005600000900098012846D123484030006840F0B0
:1005700080502149403108602048006840F44040E4
:100580001E4908601C48083000681B490831086093
:100590000846006840F4004008600846006840F4DF
:1005A000A05008601648091F0860081F006840F046
:1005B0008070091F086000BF0F48006800F00070DD
:1005C0000028F9D040F205700E4908600A4808304A
:1005D000006820F0030008490831086008460068F8
:1005E00040F00200086000BF03480830006800F0D7
:1005F0000C000828F8D10CBD003802400070004003
:1006000008544007003C024010B50446601EB0F19B
:10061000807F01D3012010BD601E4FF0E0214861B2
:100620000F214FF0FF30FFF751FF00204FF0E02186
:100630008861072008610020EDE700000448006899
:10064000002804DD02480068401E01490860704728
:100650000000002010B51548006840F470001349F0
:1006600008601348006840F001001149086000204C
:100670000F49083108600E4800680E4908400C49CF
:1006800008600D48091D0860081F006820F48020DC
:10069000091F0860002006490C310860FFF73EFF83
:1006A0004FF0006001498039086010BD88ED00E01E
:1006B00000380240FFFFF6FE1030002400BFFEE7C6
:1006C00002E008C8121F08C1002AFAD1704770471B
:1006D000002001E001C1121F002AFBD17047000079
:1006E0001CB5FFF7B9FDFFF7A1FE01212020FFF7A0
:1006F00003FF4FF40070009001208DF804000220E9
:100700008DF8050000208DF8060069462B48FFF79C
:1007100036FE4FF400712948FFF784FEFFF7DAFD3B
:100720004FF400712548FFF77BFE4FF4FA60FFF7A6
:10073000ADFE4FF400712148FFF774FE3DE001214A
:100740001F48FFF764FE48B9FFF76AFD00BF0121AB
:100750001B48FFF75CFE0028F9D02EE00421194861
:10076000FFF755FE48B9FFF73FFD00BF04211548CC
:10077000FFF74DFE0028F9D01FE008211148FFF7D0
:1007800046FE48B9FFF7C2FD00BF08210D48FFF73C
:100790003EFE0028F9D010E010210A48FFF737FE8E
:1007A00048B9FFF7CFFD00BF10210648FFF72FFE25
:1007B0000028F9D001E0FFF78DFDC0E700140240EA
:1007C0000000024000100240E8070008000000207E
:1007D00018000000C00600080008000818000020EB
:1007E00000040000D006000800000000007A030AA0
:1007F00000000000000000000102030406070809D1
:040000050800018965
:00000001FF
